:100000001FC039C038C037C036C035C0FFC133C08B
:1000100032C031C030C02FC02EC02DC02CC02BC06C
:100020002AC029C028C009C21CC23EC03FC040C06F
:1000300041C042C043C044C045C046C047C049C09B
:1000400011241FBECFE5D1E0DEBFCDBF10E0A0E69A
:10005000B0E0EAECF4E002C005900D92A236B107E0
:10006000D9F710E0A2E6B0E001C01D92A837B107B1
:10007000E1F732D028C2C4CF12BE109275001092A0
:10008000740082E089BF8091600090916100181631
:10009000190614F019BE0895FFCFFC018B309105AD
:1000A000D0F4EB5EFF4F099418BA089580E80FC0B2
:1000B00080E40DC080EC0BC080E209C080EA07C07C
:1000C00080E605C080EE03C080E101C080E988BB06
:1000D000089588E088BB08956F927F928F929F92D7
:1000E000AF92BF92CF92DF92EF92FF920F931F9346
:1000F000CF93DF931ABA81E187BB8CE381BB88E1A0
:100100008BBF84B1876084B9289A10BE85E083BF15
:1001100019BE789460E2662EC1E0D0E003E010E002
:1001200058E0752E45E0A42EB12C30E1932E24E04A
:10013000C22ED12C94E0892E82E0E82EF12C209161
:100140006400309165002230310509F43FC023304E
:10015000310544F42115310591F02130310509F0C4
:100160004CC124C02430310509F4BBC02430310512
:100170000CF45FC02530310509F03FC102C1809108
:10018000620090916300892B09F437C18091680067
:1001900090916900009729F4D0936700C09366009E
:1001A0002CC1909367008093660027C180917600F0
:1001B00090917700892B29F4309367002093660093
:1001C0001CC1F0926700E092660017C162BA80918C
:1001D000620090916300892B09F4DAC080916A0073
:1001E00090916B00892B29F01093670000936600B3
:1001F000DEC030936700209366003EDF809172007E
:10020000909173000196909373008093720045DF84
:100210002091720030917300809176009091770068
:100220002817390709F0E9C0D0936B00C0936A0022
:10023000E4C092BA8091620090916300892B49F4E6
:100240001093690000936800109267001092660096
:10025000D4C080916C0090916D00892B29F0D092D0
:100260006700C0926600A3C0109367000093660009
:1002700003DF809172009091730001969093730058
:10028000809372000ADF8091720090917300833036
:10029000910569F480917600909177008130910505
:1002A00009F0ABC090936D0080936C00A6C08730BE
:1002B000910541F48091760090917700029709F0C2
:1002C0009CC00AC00A9709F098C08091760090916E
:1002D0007700039709F091C0D0936D00C0936C0034
:1002E0008CC072BA8091620090916300892B09F4EE
:1002F0004FC080916E0090916F00892B29F0B092D1
:100300006700A092660053C0309367002093660098
:10031000B3DE809172009091730001969093730008
:1003200080937200BADE80917200909173008230E7
:10033000910569F480917600909177008130910564
:1003400009F05BC090936F0080936E0056C08430BC
:10035000910541F48091760090917700029709F021
:100360004CC00AC0059709F048C080917600909172
:100370007700039709F041C0D0936F00C0936E00DF
:100380003CC082BA8091620090916300892B29F46D
:10039000309369002093680057CF8091700090914E
:1003A0007100892B49F0109267001092660010923C
:1003B00073001092720021C0309367002093660092
:1003C0005BDE8091720090917300019690937300B0
:1003D0008093720062DE809176009091770063E0F6
:1003E00070E05FD0209172003091730028173907B8
:1003F00021F4D0937100C0937000809166009091B9
:100400006700909365008093640099CE1F920F92CD
:100410000FB60F9211248F939F9380917400909147
:100420007500019690937500809374009F918F9151
:100430000F900FBE0F901F9018951F920F920FB63E
:100440000F9211248F939F9382E090E09093770016
:10045000809376009F918F910F900FBE0F901F9009
:1004600018951F920F920FB60F9211242F933F935E
:100470008F939F9320E030E0809162009091630021
:10048000892B11F421E030E0309363002093620067
:100490009F918F913F912F910F900FBE0F901F90C2
:1004A00018955527002480FF02C0060E571F660FBF
:1004B000771F6115710521F096958795009799F73B
:0A04C000952F802D0895F894FFCFCA
:0204CA001F0011
:00000001FF
